:020000040800F2
:1000000070080020990F00088D0300088F03000876
:1000100093030008970300089B03000800000000FA
:10002000000000000000000000000000A103000824
:100030009F03000800000000A3030008A5030008B8
:10004000A7030008A9030008AB030008AD030008DC
:10005000AF030008B1030008B3030008B5030008AC
:10006000B7030008B9030008BB030008BD0300087C
:10007000BF030008C1030008C3030008C50300084C
:10008000C7030008C9030008CB030008CD0300081C
:10009000CF030008D1030008D3030008D5030008EC
:1000A000D7030008D9030008DB030008DD030008BC
:1000B000DF030008E1030008E3030008E50300088C
:1000C000E7030008E9030008EB030008ED0300085C
:1000D000EF030008F1030008F3030008F50300082C
:1000E000F7030008F9030008FB030008FD030008FC
:1000F000FF030008010400080304000805040008C9
:1001000007040008090400080B0400080D04000897
:100110000F04000811040008130400081504000867
:1001200017040008190400081B0400081D04000837
:1001300000F002F800F03AF80AA090E8000C8244BF
:100140008344AAF10107DA4501D100F02FF8AFF29C
:10015000090EBAE80F0013F0010F18BFFB1A43F0A5
:1001600001031847E80E0000080F0000103A24BFF2
:1001700078C878C1FAD8520724BF30C830C144BF0C
:1001800004680C607047000000230024002500264E
:10019000103A28BF78C1FBD8520728BF30C148BFEA
:1001A0000B6070471FB51FBD10B510BD00F009FFF3
:1001B0001146FFF7F7FF00F050F800F027FF03B4F7
:1001C000FFF7F2FF03BC00F02FFF000001B502E0D3
:1001D0000098401E009000980028F9D108BD10B585
:1001E00000214FF0006000F0CDFB10BD10B500F015
:1001F000BDFC4FF4803000F0D8FC00F015FD5849EC
:10020000087008460078012826D1102000F01EF959
:10021000022000F005F9002000F04FFD002000F062
:100220005EFD4FF4806000F051FD4FF4E0114FF49B
:10023000803000F025FD012000F02EFD00BF3920A8
:1002400000F0D6FC0028FAD0022000F028FD00BF04
:1002500000F02EFD0828FBD110BDFFF7C7FFFFF708
:10026000BEFF01217C2000F0F1FD4FF6FF703D49FB
:1002700008800020C8703C4800F05EF939493B48CE
:1002800000F05AF937493A4800F056F935493948EB
:1002900000F052F93349384800F04EF900217C2033
:1002A00000F0D4FD01214FF4C07000F0CFFD2D49C6
:1002B000324800F041F92B49314800F03DF9002166
:1002C0004FF4C07000F0C2FD0121802000F0BEFD9F
:1002D0004FF4F860234908801020C870032088700C
:1002E000264800F029F939E04021244800F0D0F9EF
:1002F0002448FFF76BFF4FF4C071204800F0C8F9A5
:1003000040211E4800F0C6F91E48FFF75FFF4FF47A
:1003100000711A4800F0BCF94FF4C071174800F0A2
:10032000B9F91848FFF752FF4FF40071134800F075
:10033000B1F915480078401CC0B213490870032871
:1003400007DD002008704FF480610C4800F0A2F92E
:1003500004E04FF48061094800F09AF9C4E7000016
:10036000040000200000002000080140000C0140B3
:10037000001001400014014000180140001C014021
:1003800000200140FFFF0A0005000020704700BF69
:10039000FEE700BFFEE700BFFEE700BFFEE77047D5
:1003A0007047704770477047704770477047704795
:1003B0007047704770477047704770477047704785
:1003C0007047704770477047704770477047704775
:1003D0007047704770477047704770477047704765
:1003E0007047704770477047704770477047704755
:1003F0007047704770477047704770477047704745
:100400007047704770477047704770477047704734
:1004100070477047704770477047704770470000DB
:100420001049096801F038010E4A11601146096847
:100430000143116070470B49096821F00801094A1E
:100440001160114609680143116070470549096848
:1004500021F01001034A116011460968014311603F
:10046000704700000020024010B50446C549601ADC
:100470008C422FD009DCC448204480B1B0F5806F95
:1004800016D0B0F5006F4AD11BE0B0F5806F2AD0CE
:10049000B0F5006F30D0B0F5406F40D135E00121AC
:1004A000042000F0EDFC0021042000F0E9FC37E01E
:1004B0000121082000F0E4FC0021082000F0E0FC0D
:1004C0002EE00121102000F0DBFC0021102000F0C4
:1004D000D7FC25E00121202000F0D2FC00212020C3
:1004E00000F0CEFC1CE00121402000F0C9FC0021FE
:1004F000402000F0C5FC13E00121802000F0C0FC8A
:100500000021802000F0BCFC0AE00121080200F07C
:10051000B7FC00214FF4807000F0B2FC00E000BF97
:1005200000BF10BD10B50121084600F0A9FC002154
:10053000012000F0A5FC10BD2DE9F0410246002588
:100540000026002000230024002791F803C00CF0AF
:100550000F0591F803C00CF0100CBCF1000F03D094
:1005600091F802C04CEA050591F800C0BCF1000FFB
:1005700030D0146800202AE04FF0010C0CFA00F390
:10058000B1F800C00CEA03069E421FD183004FF071
:100590000F0C0CFA03F7BC4305FA03FC4CEA040405
:1005A00091F803C0BCF1280F05D14FF0010C0CFAF3
:1005B00000FCC2F814C091F803C0BCF1480F05D18B
:1005C0004FF0010C0CFA00FCC2F810C0401C0828C7
:1005D000D2D31460B1F800C0BCF1FF0F34DD546811
:1005E00000202EE000F1080C4FF0010808FA0CF38F
:1005F000B1F800C00CEA03069E4221D183004FF0FF
:100600000F0C0CFA03F7BC4305FA03FC4CEA040494
:1006100091F803C0BCF1280F05D100F1080C08FACD
:100620000CF8C2F8148091F803C0BCF1480F07D150
:1006300000F1080C4FF0010808FA0CF8C2F810801D
:10064000401C0828CED35460BDE8F0814FF6FF71FE
:100650000180022181700421C17070470246002090
:1006600093680B400BB1012000E000207047014669
:10067000886880B2704702460020D3680B400BB1F7
:10068000012000E0002070470146C86880B2704732
:1006900001617047416170470AB1016100E0416149
:1006A0007047C16070474FF480320A4382618161B4
:1006B000826182698269704702460020334B186864
:1006C0004FF68073184040EA021008432F4B186021
:1006D00070472F49C8617047F0B50A4600230024CF
:1006E00000210025294E7168C0F3034583B200F450
:1006F0004016B6F5401F08D121F07061234E766890
:1007000026F07066214F7E6012E000F48016B6F588
:10071000801F06D1032606FA05F4A14341F070615B
:1007200006E0460D360103FA06F6B14341F070616A
:1007300022B1460D360103FA06F63143134E7160BD
:10074000F0BD30B500228B071C0F0F2303FA04F213
:100750000E4B08338C1053F8243093430B4C083461
:100760008D1044F8253023468C1053F824308C0724
:10077000240F00FA04F42343044C08348D1044F889
:10078000253030BD0014014000F8FEBF00000140DC
:10079000000020420020411EED4A11600A09EC4988
:1007A0008039C1F88420411E4FF0E022C2F8801247
:1007B0000A09E8490A6000BF04E00022E64941F85E
:1007C0002020401C0F28F8D3704700204FF02061F4
:1007D000E24A11600021121D1160E149121D1160F1
:1007E0000021121D1160121D116000BF05E00022E2
:1007F000DA49143141F82020401C0328F7D30021A6
:10080000D64A20321160491E121D1160121D11605E
:10081000121D11607047D2490143D04A083211605D
:100820007047F0B500210022002300250F24C67870
:10083000002E35D0C94E0836366806F4E066C6F597
:10084000E066310AC1F10405CC40467806FA05F1AC
:1008500086782640314309010678B607F60EB14086
:10086000BD4E0778BF1056F827200678B607F70E5A
:10087000FF2606FA07F39A4319400A43B64E077853
:10088000BF1046F82720067806F01F070126BE4055
:1008900007787F11BF0007F1E027C7F800610BE080
:1008A000067806F01F070126BE40A94F90F800C049
:1008B0004FEA6C1C47F82C60F0BD002101704170BC
:1008C0008170C170704710B500F04FFB10BD10B5BE
:1008D00000F049FB10BD10B500F04CFB10BD10B589
:1008E00000F04AFB10BD10B50446200100F049FBA2
:1008F00010BD10B500F048FB10BD98480068C0F36B
:100900000930704710B501460020002201F01F0495
:10091000012303FA04F28E4B80334C1153F8243038
:100920001340934201D1012000E0002010BD8D4909
:100930000860704700F01F0201219140854A121F94
:10094000431142F82310704784480068C0F309003F
:10095000704710B501460020002201F01F0401235A
:1009600003FA04F27B4B7C334C1153F824301340D0
:10097000934201D1012000E0002010BD7748001F04
:1009800000687047784A0A400243744B1B1D1A6086
:1009900070477348001D71490831086070477048FE
:1009A000401C6E4908310860704739B16B4A0C32FF
:1009B00012680243694B0C331A6006E0674A0C3236
:1009C00012688243654B0C331A60704710B50022E1
:1009D00000F01F04012303FA04F239B15F4B203306
:1009E0001B6813435D4C2034236006E05B4B2033CF
:1009F0001B689343594C2034236010BDF0B5034667
:100A00000C4615460020FF2200260021534F0837D0
:100A10003F6807F4E067C7F5E067390AC1F10400F1
:100A2000CA4004FA00F105EA02073943090103F05C
:100A3000C0008009C3F30122D700B9404FEAC20CBD
:100A4000FF2707FA0CF6454F143757F82070B743C5
:100A5000DFF808C10CF1140C4CF82070674657F809
:100A600020700F434CF82070F0BD10B502460020F6
:100A700000230021910A01F00F01012404FA01F181
:100A8000364C2034246804EA01038B4201D1012052
:100A900000E0002010BD002100F01F012F4A126865
:100AA00001238B401A432D4B1A60704710B500216B
:100AB00000F01F01294A12684B1E01249C4022436A
:100AC000264B1A6010BD10B50246002000230021FD
:100AD000C2F38331012404FA01F1204C203424684C
:100AE00004EA01038B4201D1012000E0002010BD87
:100AF00030B50146002000220023C1F38142C1F33A
:100B000001531AB9154C2834206811E0012A0CD180
:100B1000124C24342468DD0024FA05F0022B02D0A4
:100B200000F00F0004E0C0B202E00C4C2C3420684E
:100B300030BD014600200022C1F380521AB9074B94
:100B40003033186802E0054B3433186870470000F2
:100B500080E100E084E200E000E400E004ED00E079
:100B60000000FA0500EF00E080FFFF1FE04800688A
:100B700040F00100DE49086008464068DD49084051
:100B8000DB49486008460068DB490840D8490860EE
:100B90000846006820F4802008600846406820F479
:100BA000FE004860002088607047D149096821F440
:100BB0008031CF4A11601146096821F4802111600B
:100BC000B0F5803F03D0B0F5802F0ED106E0C849C4
:100BD000096841F48031C64A116007E0C4490968D8
:100BE00041F4A021C24A116000E000BF00BF70477D
:100BF00010B501460022002300204A11012A02D12B
:100C0000BB4C236806E0022A02D1B94C236A01E0FA
:100C1000B74C636A01F01F02012494401C400CB1E0
:100C2000012000E0002010BD10B5002400BF3120DD
:100C3000FFF7DEFFB1490870B1480068401CB049B9
:100C40000860AE48007828B90846006840F2FF11F5
:100C50008842ECD13120FFF7CBFF08B1012400E03E
:100C60000024204610BD01460020A14A106820F053
:100C7000F80040EAC10010607047A2490860704760
:100C8000024600209A4B586820F47C1042EA010387
:100C90001843974B586070479A4908667047014659
:100CA0000020934A506820F00300084350607047CA
:100CB0008F48406800F00C007047014600208C4AC5
:100CC000506820F0F0000843506070470146002053
:100CD000874A506820F4E06008435060704701463E
:100CE0000020834A506820F4605040EAC100506000
:100CF000704729B17E4A527A02437D4B5A7204E012
:100D00007B4A527A82437A4B5A7270477D49D83176
:100D10000860704701460020754A506820F4404042
:100D20000843506070470021714A20321170704AA8
:100D300082F82010012802D004280AD104E0012101
:100D40006B4A2032117005E00521694A203211708A
:100D500000E000BF00BF70476B49086070476449FE
:100D6000096A0143624A1162704767494439086061
:100D7000704730B500210022002400235C4D6D68CF
:100D800005F00C0121B1042905D0082923D105E083
:100D90005E4D056022E05D4D05601FE0544D6D68BD
:100DA00005F47012022505EB9242514D6D6805F471
:100DB00080341CB9564D554305600BE04C4D6D68B1
:100DC00005F400351DB1524D5543056002E04F4D0D
:100DD0005543056002E04D4D056000BF00BF444D26
:100DE0006D6805F0F00109094A4D6B5C0568DD404E
:100DF00045603F4D6D6805F4E061090A454D6B5C47
:100E00004568DD4085603A4D6D6805F46051C90A5A
:100E1000404D6B5C4568DD40C560354D6D6805F43F
:100E20004041890B3C4D6B5CC568B5FBF3F5056132
:100E300030BD29B12E4A526902432D4B5A6104E05C
:100E40002B4A526982432A4B5A61704729B1284A7A
:100E500092690243264B9A6104E0254A92698243D3
:100E6000234B9A61704729B1214AD2690243204B32
:100E7000DA6104E01E4AD26982431D4BDA61704791
:100E800029B11B4AD2680243194BDA6004E0184AC0
:100E9000D2688243164BDA60704729B1144A12694E
:100EA0000243134B1A6104E0114A12698243104B4A
:100EB0001A61704714494039086070471149C86485
:100EC00070470B49C87170470948406A40F080700C
:100ED00007494862704701460020054A92680A4067
:100EE0000AB1012000E00020704701498872704774
:100EF000001002400000FFF8FFFFF6FE080000208F
:100F00000C000020000042428004424200127A009D
:100F100000093D00361000084610000830BF704739
:100F200020BF704740BF7047BFF36F8F7047BFF35C
:100F30004F8F7047BFF35F8F704701DF7047EFF34C
:100F40001480704780F31488BFF36F8F7047EFF3FE
:100F50000980704780F309887047EFF30880704775
:100F600080F30888704762B6704772B67047EFF337
:100F70001080704771B6704761B67047EFF3138009
:100F8000704780F311887047EFF31280704740BAC2
:100F9000704700BA704700000348004703480449FF
:100FA000044A054B70470000310100087000002022
:100FB0007008002070040020700400207047704703
:100FC0007047754600F02CF8AE460500694653465A
:100FD00020F00700854618B020B5FFF7DFFFBDE819
:100FE00020404FF000064FF000074FF000084FF090
:100FF000000B21F00701AC46ACE8C009ACE8C00921
:10100000ACE8C009ACE8C0098D46704710B504468D
:10101000AFF300802046BDE81040FFF7D0B80000D5
:10102000004870471000002001491820ABBEFEE7C1
:1010300026000200704700000000010203040102C4
:101040000304060708090204060800006C100008E3
:1010500000000020100000006C0100087C10000857
:101060001000002060080000880100080000000057
:0C10700000000000000000000000000074
:0400000508000131BD
:00000001FF
